:020000040000FA
:0400000002000100F9
:0400040000001010D8
:0400080010101010B4
:04000C0010101010B0
:0400100010101010AC
:0400140010101010A8
:0400180010101010A4
:04001C0010101010A0
:04002000101010109C
:040024001010101098
:040028001010101094
:04002C001010101090
:04003000101010108C
:040034001010101088
:040038001010101084
:04003C001010101080
:04004000101010107C
:040044001010101078
:040048001010101074
:04004C001010101070
:04005000101010106C
:040054001010101068
:040058001010101064
:04005C001010101060
:04006000101010105C
:040064001010101058
:040068001010101054
:04006C001010101050
:04007000101010104C
:040074001010101048
:040078001010101044
:04007C001010101040
:04008000101010103C
:040084001010101038
:040088001010101034
:04008C001010101030
:04009000101010102C
:040094001010101028
:040098001010101024
:04009C001010101020
:0400A000101010101C
:0400A4001010101018
:0400A8001010101014
:0400AC001010101010
:0400B000101010100C
:0400B4001010101008
:0400B8001010101004
:0400BC001010101000
:0400C00010101010FC
:0400C40010101010F8
:0400C80010101010F4
:0400CC0010101010F0
:0400D00010101010EC
:0400D40010101010E8
:0400D80010101010E4
:0400DC0010101010E0
:0400E00010101010DC
:0400E40010101010D8
:0400E80010101010D4
:0400EC0010101010D0
:0400F00010101010CC
:0400F40010101010C8
:0400F80010101010C4
:0400FC0010101010C0
:0401000010101010BB
:020104001010D9
